{
	"Advancd.sol": {
		"AdvancedStorage": {
			"abi": [
				{
					"inputs": [],
					"stateMutability": "nonpayable",
					"type": "constructor"
				},
				{
					"inputs": [],
					"name": "favoriteNumber",
					"outputs": [
						{
							"internalType": "uint256",
							"name": "",
							"type": "uint256"
						}
					],
					"stateMutability": "view",
					"type": "function"
				},
				{
					"inputs": [],
					"name": "getFavoriteNumber",
					"outputs": [
						{
							"internalType": "uint256",
							"name": "",
							"type": "uint256"
						}
					],
					"stateMutability": "view",
					"type": "function"
				},
				{
					"inputs": [],
					"name": "getWithTimeStamp",
					"outputs": [
						{
							"internalType": "uint256",
							"name": "",
							"type": "uint256"
						},
						{
							"internalType": "uint256",
							"name": "",
							"type": "uint256"
						}
					],
					"stateMutability": "view",
					"type": "function"
				},
				{
					"inputs": [],
					"name": "owner",
					"outputs": [
						{
							"internalType": "address",
							"name": "",
							"type": "address"
						}
					],
					"stateMutability": "view",
					"type": "function"
				},
				{
					"inputs": [
						{
							"internalType": "uint256",
							"name": "_favoriteNumber",
							"type": "uint256"
						}
					],
					"name": "storeNumber",
					"outputs": [],
					"stateMutability": "nonpayable",
					"type": "function"
				},
				{
					"inputs": [],
					"name": "timestamp",
					"outputs": [
						{
							"internalType": "uint256",
							"name": "",
							"type": "uint256"
						}
					],
					"stateMutability": "view",
					"type": "function"
				}
			],
			"devdoc": {
				"kind": "dev",
				"methods": {},
				"version": 1
			},
			"evm": {
				"assembly": "    /* \"Advancd.sol\":90:658  contract AdvancedStorage is SimpleStorage{... */\n  mstore(0x40, 0x80)\n    /* \"Advancd.sol\":321:372  constructor(){... */\n  callvalue\n  dup1\n  iszero\n  tag_1\n  jumpi\n  0x00\n  dup1\n  revert\ntag_1:\n  pop\n    /* \"Advancd.sol\":351:361  msg.sender */\n  caller\n    /* \"Advancd.sol\":345:350  owner */\n  0x02\n  0x00\n    /* \"Advancd.sol\":345:361  owner=msg.sender */\n  0x0100\n  exp\n  dup2\n  sload\n  dup2\n  0xffffffffffffffffffffffffffffffffffffffff\n  mul\n  not\n  and\n  swap1\n  dup4\n  0xffffffffffffffffffffffffffffffffffffffff\n  and\n  mul\n  or\n  swap1\n  sstore\n  pop\n    /* \"Advancd.sol\":90:658  contract AdvancedStorage is SimpleStorage{... */\n  dataSize(sub_0)\n  dup1\n  dataOffset(sub_0)\n  0x00\n  codecopy\n  0x00\n  return\nstop\n\nsub_0: assembly {\n        /* \"Advancd.sol\":90:658  contract AdvancedStorage is SimpleStorage{... */\n      mstore(0x40, 0x80)\n      callvalue\n      dup1\n      iszero\n      tag_1\n      jumpi\n      0x00\n      dup1\n      revert\n    tag_1:\n      pop\n      jumpi(tag_2, lt(calldatasize, 0x04))\n      shr(0xe0, calldataload(0x00))\n      dup1\n      0x471f7cdf\n      eq\n      tag_3\n      jumpi\n      dup1\n      0x69199d11\n      eq\n      tag_4\n      jumpi\n      dup1\n      0x8da5cb5b\n      eq\n      tag_5\n      jumpi\n      dup1\n      0xa621d15e\n      eq\n      tag_6\n      jumpi\n      dup1\n      0xb6339418\n      eq\n      tag_7\n      jumpi\n      dup1\n      0xb80777ea\n      eq\n      tag_8\n      jumpi\n    tag_2:\n      0x00\n      dup1\n      revert\n        /* \"SimpleStorage.sol\":90:119  uint256 public favoriteNumber */\n    tag_3:\n      tag_9\n      tag_10\n      jump\t// in\n    tag_9:\n      mload(0x40)\n      tag_11\n      swap2\n      swap1\n      tag_12\n      jump\t// in\n    tag_11:\n      mload(0x40)\n      dup1\n      swap2\n      sub\n      swap1\n      return\n        /* \"Advancd.sol\":537:655  function getWithTimeStamp() public view returns (uint256,uint256){... */\n    tag_4:\n      tag_13\n      tag_14\n      jump\t// in\n    tag_13:\n      mload(0x40)\n      tag_15\n      swap3\n      swap2\n      swap1\n      tag_16\n      jump\t// in\n    tag_15:\n      mload(0x40)\n      dup1\n      swap2\n      sub\n      swap1\n      return\n        /* \"Advancd.sol\":171:191  address public owner */\n    tag_5:\n      tag_17\n      tag_18\n      jump\t// in\n    tag_17:\n      mload(0x40)\n      tag_19\n      swap2\n      swap1\n      tag_20\n      jump\t// in\n    tag_19:\n      mload(0x40)\n      dup1\n      swap2\n      sub\n      swap1\n      return\n        /* \"SimpleStorage.sol\":245:343  function getFavoriteNumber() public view returns (uint256){... */\n    tag_6:\n      tag_21\n      tag_22\n      jump\t// in\n    tag_21:\n      mload(0x40)\n      tag_23\n      swap2\n      swap1\n      tag_12\n      jump\t// in\n    tag_23:\n      mload(0x40)\n      dup1\n      swap2\n      sub\n      swap1\n      return\n        /* \"Advancd.sol\":381:528  function storeNumber(uint256 _favoriteNumber) public override{... */\n    tag_7:\n      tag_24\n      0x04\n      dup1\n      calldatasize\n      sub\n      dup2\n      add\n      swap1\n      tag_25\n      swap2\n      swap1\n      tag_26\n      jump\t// in\n    tag_25:\n      tag_27\n      jump\t// in\n    tag_24:\n      stop\n        /* \"Advancd.sol\":139:163  uint256 public timestamp */\n    tag_8:\n      tag_28\n      tag_29\n      jump\t// in\n    tag_28:\n      mload(0x40)\n      tag_30\n      swap2\n      swap1\n      tag_12\n      jump\t// in\n    tag_30:\n      mload(0x40)\n      dup1\n      swap2\n      sub\n      swap1\n      return\n        /* \"SimpleStorage.sol\":90:119  uint256 public favoriteNumber */\n    tag_10:\n      sload(0x00)\n      dup2\n      jump\t// out\n        /* \"Advancd.sol\":537:655  function getWithTimeStamp() public view returns (uint256,uint256){... */\n    tag_14:\n        /* \"Advancd.sol\":586:593  uint256 */\n      0x00\n        /* \"Advancd.sol\":594:601  uint256 */\n      dup1\n        /* \"Advancd.sol\":621:635  favoriteNumber */\n      sload(0x00)\n        /* \"Advancd.sol\":636:645  timestamp */\n      sload(0x01)\n        /* \"Advancd.sol\":613:646  return (favoriteNumber,timestamp) */\n      swap2\n      pop\n      swap2\n      pop\n        /* \"Advancd.sol\":537:655  function getWithTimeStamp() public view returns (uint256,uint256){... */\n      swap1\n      swap2\n      jump\t// out\n        /* \"Advancd.sol\":171:191  address public owner */\n    tag_18:\n      0x02\n      0x00\n      swap1\n      sload\n      swap1\n      0x0100\n      exp\n      swap1\n      div\n      0xffffffffffffffffffffffffffffffffffffffff\n      and\n      dup2\n      jump\t// out\n        /* \"SimpleStorage.sol\":245:343  function getFavoriteNumber() public view returns (uint256){... */\n    tag_22:\n        /* \"SimpleStorage.sol\":295:302  uint256 */\n      0x00\n        /* \"SimpleStorage.sol\":321:335  favoriteNumber */\n      dup1\n      sload\n        /* \"SimpleStorage.sol\":314:335  return favoriteNumber */\n      swap1\n      pop\n        /* \"SimpleStorage.sol\":245:343  function getFavoriteNumber() public view returns (uint256){... */\n      swap1\n      jump\t// out\n        /* \"Advancd.sol\":381:528  function storeNumber(uint256 _favoriteNumber) public override{... */\n    tag_27:\n        /* \"Advancd.sol\":468:483  _favoriteNumber */\n      dup1\n        /* \"Advancd.sol\":453:467  favoriteNumber */\n      0x00\n        /* \"Advancd.sol\":453:483  favoriteNumber=_favoriteNumber */\n      dup2\n      swap1\n      sstore\n      pop\n        /* \"Advancd.sol\":504:519  block.timestamp */\n      timestamp\n        /* \"Advancd.sol\":494:503  timestamp */\n      0x01\n        /* \"Advancd.sol\":494:519  timestamp=block.timestamp */\n      dup2\n      swap1\n      sstore\n      pop\n        /* \"Advancd.sol\":381:528  function storeNumber(uint256 _favoriteNumber) public override{... */\n      pop\n      jump\t// out\n        /* \"Advancd.sol\":139:163  uint256 public timestamp */\n    tag_29:\n      sload(0x01)\n      dup2\n      jump\t// out\n        /* \"#utility.yul\":7:84   */\n    tag_34:\n        /* \"#utility.yul\":44:51   */\n      0x00\n        /* \"#utility.yul\":73:78   */\n      dup2\n        /* \"#utility.yul\":62:78   */\n      swap1\n      pop\n        /* \"#utility.yul\":7:84   */\n      swap2\n      swap1\n      pop\n      jump\t// out\n        /* \"#utility.yul\":90:208   */\n    tag_35:\n        /* \"#utility.yul\":177:201   */\n      tag_47\n        /* \"#utility.yul\":195:200   */\n      dup2\n        /* \"#utility.yul\":177:201   */\n      tag_34\n      jump\t// in\n    tag_47:\n        /* \"#utility.yul\":172:175   */\n      dup3\n        /* \"#utility.yul\":165:202   */\n      mstore\n        /* \"#utility.yul\":90:208   */\n      pop\n      pop\n      jump\t// out\n        /* \"#utility.yul\":214:436   */\n    tag_12:\n        /* \"#utility.yul\":307:311   */\n      0x00\n        /* \"#utility.yul\":345:347   */\n      0x20\n        /* \"#utility.yul\":334:343   */\n      dup3\n        /* \"#utility.yul\":330:348   */\n      add\n        /* \"#utility.yul\":322:348   */\n      swap1\n      pop\n        /* \"#utility.yul\":358:429   */\n      tag_49\n        /* \"#utility.yul\":426:427   */\n      0x00\n        /* \"#utility.yul\":415:424   */\n      dup4\n        /* \"#utility.yul\":411:428   */\n      add\n        /* \"#utility.yul\":402:408   */\n      dup5\n        /* \"#utility.yul\":358:429   */\n      tag_35\n      jump\t// in\n    tag_49:\n        /* \"#utility.yul\":214:436   */\n      swap3\n      swap2\n      pop\n      pop\n      jump\t// out\n        /* \"#utility.yul\":442:774   */\n    tag_16:\n        /* \"#utility.yul\":563:567   */\n      0x00\n        /* \"#utility.yul\":601:603   */\n      0x40\n        /* \"#utility.yul\":590:599   */\n      dup3\n        /* \"#utility.yul\":586:604   */\n      add\n        /* \"#utility.yul\":578:604   */\n      swap1\n      pop\n        /* \"#utility.yul\":614:685   */\n      tag_51\n        /* \"#utility.yul\":682:683   */\n      0x00\n        /* \"#utility.yul\":671:680   */\n      dup4\n        /* \"#utility.yul\":667:684   */\n      add\n        /* \"#utility.yul\":658:664   */\n      dup6\n        /* \"#utility.yul\":614:685   */\n      tag_35\n      jump\t// in\n    tag_51:\n        /* \"#utility.yul\":695:767   */\n      tag_52\n        /* \"#utility.yul\":763:765   */\n      0x20\n        /* \"#utility.yul\":752:761   */\n      dup4\n        /* \"#utility.yul\":748:766   */\n      add\n        /* \"#utility.yul\":739:745   */\n      dup5\n        /* \"#utility.yul\":695:767   */\n      tag_35\n      jump\t// in\n    tag_52:\n        /* \"#utility.yul\":442:774   */\n      swap4\n      swap3\n      pop\n      pop\n      pop\n      jump\t// out\n        /* \"#utility.yul\":780:906   */\n    tag_36:\n        /* \"#utility.yul\":817:824   */\n      0x00\n        /* \"#utility.yul\":857:899   */\n      0xffffffffffffffffffffffffffffffffffffffff\n        /* \"#utility.yul\":850:855   */\n      dup3\n        /* \"#utility.yul\":846:900   */\n      and\n        /* \"#utility.yul\":835:900   */\n      swap1\n      pop\n        /* \"#utility.yul\":780:906   */\n      swap2\n      swap1\n      pop\n      jump\t// out\n        /* \"#utility.yul\":912:1008   */\n    tag_37:\n        /* \"#utility.yul\":949:956   */\n      0x00\n        /* \"#utility.yul\":978:1002   */\n      tag_55\n        /* \"#utility.yul\":996:1001   */\n      dup3\n        /* \"#utility.yul\":978:1002   */\n      tag_36\n      jump\t// in\n    tag_55:\n        /* \"#utility.yul\":967:1002   */\n      swap1\n      pop\n        /* \"#utility.yul\":912:1008   */\n      swap2\n      swap1\n      pop\n      jump\t// out\n        /* \"#utility.yul\":1014:1132   */\n    tag_38:\n        /* \"#utility.yul\":1101:1125   */\n      tag_57\n        /* \"#utility.yul\":1119:1124   */\n      dup2\n        /* \"#utility.yul\":1101:1125   */\n      tag_37\n      jump\t// in\n    tag_57:\n        /* \"#utility.yul\":1096:1099   */\n      dup3\n        /* \"#utility.yul\":1089:1126   */\n      mstore\n        /* \"#utility.yul\":1014:1132   */\n      pop\n      pop\n      jump\t// out\n        /* \"#utility.yul\":1138:1360   */\n    tag_20:\n        /* \"#utility.yul\":1231:1235   */\n      0x00\n        /* \"#utility.yul\":1269:1271   */\n      0x20\n        /* \"#utility.yul\":1258:1267   */\n      dup3\n        /* \"#utility.yul\":1254:1272   */\n      add\n        /* \"#utility.yul\":1246:1272   */\n      swap1\n      pop\n        /* \"#utility.yul\":1282:1353   */\n      tag_59\n        /* \"#utility.yul\":1350:1351   */\n      0x00\n        /* \"#utility.yul\":1339:1348   */\n      dup4\n        /* \"#utility.yul\":1335:1352   */\n      add\n        /* \"#utility.yul\":1326:1332   */\n      dup5\n        /* \"#utility.yul\":1282:1353   */\n      tag_38\n      jump\t// in\n    tag_59:\n        /* \"#utility.yul\":1138:1360   */\n      swap3\n      swap2\n      pop\n      pop\n      jump\t// out\n        /* \"#utility.yul\":1447:1564   */\n    tag_40:\n        /* \"#utility.yul\":1556:1557   */\n      0x00\n        /* \"#utility.yul\":1553:1554   */\n      dup1\n        /* \"#utility.yul\":1546:1558   */\n      revert\n        /* \"#utility.yul\":1693:1815   */\n    tag_42:\n        /* \"#utility.yul\":1766:1790   */\n      tag_64\n        /* \"#utility.yul\":1784:1789   */\n      dup2\n        /* \"#utility.yul\":1766:1790   */\n      tag_34\n      jump\t// in\n    tag_64:\n        /* \"#utility.yul\":1759:1764   */\n      dup2\n        /* \"#utility.yul\":1756:1791   */\n      eq\n        /* \"#utility.yul\":1746:1809   */\n      tag_65\n      jumpi\n        /* \"#utility.yul\":1805:1806   */\n      0x00\n        /* \"#utility.yul\":1802:1803   */\n      dup1\n        /* \"#utility.yul\":1795:1807   */\n      revert\n        /* \"#utility.yul\":1746:1809   */\n    tag_65:\n        /* \"#utility.yul\":1693:1815   */\n      pop\n      jump\t// out\n        /* \"#utility.yul\":1821:1960   */\n    tag_43:\n        /* \"#utility.yul\":1867:1872   */\n      0x00\n        /* \"#utility.yul\":1905:1911   */\n      dup2\n        /* \"#utility.yul\":1892:1912   */\n      calldataload\n        /* \"#utility.yul\":1883:1912   */\n      swap1\n      pop\n        /* \"#utility.yul\":1921:1954   */\n      tag_67\n        /* \"#utility.yul\":1948:1953   */\n      dup2\n        /* \"#utility.yul\":1921:1954   */\n      tag_42\n      jump\t// in\n    tag_67:\n        /* \"#utility.yul\":1821:1960   */\n      swap3\n      swap2\n      pop\n      pop\n      jump\t// out\n        /* \"#utility.yul\":1966:2295   */\n    tag_26:\n        /* \"#utility.yul\":2025:2031   */\n      0x00\n        /* \"#utility.yul\":2074:2076   */\n      0x20\n        /* \"#utility.yul\":2062:2071   */\n      dup3\n        /* \"#utility.yul\":2053:2060   */\n      dup5\n        /* \"#utility.yul\":2049:2072   */\n      sub\n        /* \"#utility.yul\":2045:2077   */\n      slt\n        /* \"#utility.yul\":2042:2161   */\n      iszero\n      tag_69\n      jumpi\n        /* \"#utility.yul\":2080:2159   */\n      tag_70\n      tag_40\n      jump\t// in\n    tag_70:\n        /* \"#utility.yul\":2042:2161   */\n    tag_69:\n        /* \"#utility.yul\":2200:2201   */\n      0x00\n        /* \"#utility.yul\":2225:2278   */\n      tag_71\n        /* \"#utility.yul\":2270:2277   */\n      dup5\n        /* \"#utility.yul\":2261:2267   */\n      dup3\n        /* \"#utility.yul\":2250:2259   */\n      dup6\n        /* \"#utility.yul\":2246:2268   */\n      add\n        /* \"#utility.yul\":2225:2278   */\n      tag_43\n      jump\t// in\n    tag_71:\n        /* \"#utility.yul\":2215:2278   */\n      swap2\n      pop\n        /* \"#utility.yul\":2171:2288   */\n      pop\n        /* \"#utility.yul\":1966:2295   */\n      swap3\n      swap2\n      pop\n      pop\n      jump\t// out\n\n    auxdata: 0xa2646970667358221220d2c40217d8c97218b25196508790ad1f4b717a4c109c2640a0ea9a2e809f808864736f6c634300081a0033\n}\n",
				"bytecode": {
					"linkReferences": {},
					"object": "6080604052348015600e575f80fd5b503360025f6101000a81548173ffffffffffffffffffffffffffffffffffffffff021916908373ffffffffffffffffffffffffffffffffffffffff1602179055506102ad8061005c5f395ff3fe608060405234801561000f575f80fd5b5060043610610060575f3560e01c8063471f7cdf1461006457806369199d11146100825780638da5cb5b146100a1578063a621d15e146100bf578063b6339418146100dd578063b80777ea146100f9575b5f80fd5b61006c610117565b6040516100799190610186565b60405180910390f35b61008a61011c565b60405161009892919061019f565b60405180910390f35b6100a961012b565b6040516100b69190610205565b60405180910390f35b6100c7610150565b6040516100d49190610186565b60405180910390f35b6100f760048036038101906100f2919061024c565b610158565b005b610101610168565b60405161010e9190610186565b60405180910390f35b5f5481565b5f805f54600154915091509091565b60025f9054906101000a900473ffffffffffffffffffffffffffffffffffffffff1681565b5f8054905090565b805f819055504260018190555050565b60015481565b5f819050919050565b6101808161016e565b82525050565b5f6020820190506101995f830184610177565b92915050565b5f6040820190506101b25f830185610177565b6101bf6020830184610177565b9392505050565b5f73ffffffffffffffffffffffffffffffffffffffff82169050919050565b5f6101ef826101c6565b9050919050565b6101ff816101e5565b82525050565b5f6020820190506102185f8301846101f6565b92915050565b5f80fd5b61022b8161016e565b8114610235575f80fd5b50565b5f8135905061024681610222565b92915050565b5f602082840312156102615761026061021e565b5b5f61026e84828501610238565b9150509291505056fea2646970667358221220d2c40217d8c97218b25196508790ad1f4b717a4c109c2640a0ea9a2e809f808864736f6c634300081a0033",
					"opcodes": "PUSH1 0x80 PUSH1 0x40 MSTORE CALLVALUE DUP1 ISZERO PUSH1 0xE JUMPI PUSH0 DUP1 REVERT JUMPDEST POP CALLER PUSH1 0x2 PUSH0 PUSH2 0x100 EXP DUP2 SLOAD DUP2 PUSH20 0xFFFFFFFFFFFFFFFFFFFFFFFFFFFFFFFFFFFFFFFF MUL NOT AND SWAP1 DUP4 PUSH20 0xFFFFFFFFFFFFFFFFFFFFFFFFFFFFFFFFFFFFFFFF AND MUL OR SWAP1 SSTORE POP PUSH2 0x2AD DUP1 PUSH2 0x5C PUSH0 CODECOPY PUSH0 RETURN INVALID PUSH1 0x80 PUSH1 0x40 MSTORE CALLVALUE DUP1 ISZERO PUSH2 0xF JUMPI PUSH0 DUP1 REVERT JUMPDEST POP PUSH1 0x4 CALLDATASIZE LT PUSH2 0x60 JUMPI PUSH0 CALLDATALOAD PUSH1 0xE0 SHR DUP1 PUSH4 0x471F7CDF EQ PUSH2 0x64 JUMPI DUP1 PUSH4 0x69199D11 EQ PUSH2 0x82 JUMPI DUP1 PUSH4 0x8DA5CB5B EQ PUSH2 0xA1 JUMPI DUP1 PUSH4 0xA621D15E EQ PUSH2 0xBF JUMPI DUP1 PUSH4 0xB6339418 EQ PUSH2 0xDD JUMPI DUP1 PUSH4 0xB80777EA EQ PUSH2 0xF9 JUMPI JUMPDEST PUSH0 DUP1 REVERT JUMPDEST PUSH2 0x6C PUSH2 0x117 JUMP JUMPDEST PUSH1 0x40 MLOAD PUSH2 0x79 SWAP2 SWAP1 PUSH2 0x186 JUMP JUMPDEST PUSH1 0x40 MLOAD DUP1 SWAP2 SUB SWAP1 RETURN JUMPDEST PUSH2 0x8A PUSH2 0x11C JUMP JUMPDEST PUSH1 0x40 MLOAD PUSH2 0x98 SWAP3 SWAP2 SWAP1 PUSH2 0x19F JUMP JUMPDEST PUSH1 0x40 MLOAD DUP1 SWAP2 SUB SWAP1 RETURN JUMPDEST PUSH2 0xA9 PUSH2 0x12B JUMP JUMPDEST PUSH1 0x40 MLOAD PUSH2 0xB6 SWAP2 SWAP1 PUSH2 0x205 JUMP JUMPDEST PUSH1 0x40 MLOAD DUP1 SWAP2 SUB SWAP1 RETURN JUMPDEST PUSH2 0xC7 PUSH2 0x150 JUMP JUMPDEST PUSH1 0x40 MLOAD PUSH2 0xD4 SWAP2 SWAP1 PUSH2 0x186 JUMP JUMPDEST PUSH1 0x40 MLOAD DUP1 SWAP2 SUB SWAP1 RETURN JUMPDEST PUSH2 0xF7 PUSH1 0x4 DUP1 CALLDATASIZE SUB DUP2 ADD SWAP1 PUSH2 0xF2 SWAP2 SWAP1 PUSH2 0x24C JUMP JUMPDEST PUSH2 0x158 JUMP JUMPDEST STOP JUMPDEST PUSH2 0x101 PUSH2 0x168 JUMP JUMPDEST PUSH1 0x40 MLOAD PUSH2 0x10E SWAP2 SWAP1 PUSH2 0x186 JUMP JUMPDEST PUSH1 0x40 MLOAD DUP1 SWAP2 SUB SWAP1 RETURN JUMPDEST PUSH0 SLOAD DUP2 JUMP JUMPDEST PUSH0 DUP1 PUSH0 SLOAD PUSH1 0x1 SLOAD SWAP2 POP SWAP2 POP SWAP1 SWAP2 JUMP JUMPDEST PUSH1 0x2 PUSH0 SWAP1 SLOAD SWAP1 PUSH2 0x100 EXP SWAP1 DIV PUSH20 0xFFFFFFFFFFFFFFFFFFFFFFFFFFFFFFFFFFFFFFFF AND DUP2 JUMP JUMPDEST PUSH0 DUP1 SLOAD SWAP1 POP SWAP1 JUMP JUMPDEST DUP1 PUSH0 DUP2 SWAP1 SSTORE POP TIMESTAMP PUSH1 0x1 DUP2 SWAP1 SSTORE POP POP JUMP JUMPDEST PUSH1 0x1 SLOAD DUP2 JUMP JUMPDEST PUSH0 DUP2 SWAP1 POP SWAP2 SWAP1 POP JUMP JUMPDEST PUSH2 0x180 DUP2 PUSH2 0x16E JUMP JUMPDEST DUP3 MSTORE POP POP JUMP JUMPDEST PUSH0 PUSH1 0x20 DUP3 ADD SWAP1 POP PUSH2 0x199 PUSH0 DUP4 ADD DUP5 PUSH2 0x177 JUMP JUMPDEST SWAP3 SWAP2 POP POP JUMP JUMPDEST PUSH0 PUSH1 0x40 DUP3 ADD SWAP1 POP PUSH2 0x1B2 PUSH0 DUP4 ADD DUP6 PUSH2 0x177 JUMP JUMPDEST PUSH2 0x1BF PUSH1 0x20 DUP4 ADD DUP5 PUSH2 0x177 JUMP JUMPDEST SWAP4 SWAP3 POP POP POP JUMP JUMPDEST PUSH0 PUSH20 0xFFFFFFFFFFFFFFFFFFFFFFFFFFFFFFFFFFFFFFFF DUP3 AND SWAP1 POP SWAP2 SWAP1 POP JUMP JUMPDEST PUSH0 PUSH2 0x1EF DUP3 PUSH2 0x1C6 JUMP JUMPDEST SWAP1 POP SWAP2 SWAP1 POP JUMP JUMPDEST PUSH2 0x1FF DUP2 PUSH2 0x1E5 JUMP JUMPDEST DUP3 MSTORE POP POP JUMP JUMPDEST PUSH0 PUSH1 0x20 DUP3 ADD SWAP1 POP PUSH2 0x218 PUSH0 DUP4 ADD DUP5 PUSH2 0x1F6 JUMP JUMPDEST SWAP3 SWAP2 POP POP JUMP JUMPDEST PUSH0 DUP1 REVERT JUMPDEST PUSH2 0x22B DUP2 PUSH2 0x16E JUMP JUMPDEST DUP2 EQ PUSH2 0x235 JUMPI PUSH0 DUP1 REVERT JUMPDEST POP JUMP JUMPDEST PUSH0 DUP2 CALLDATALOAD SWAP1 POP PUSH2 0x246 DUP2 PUSH2 0x222 JUMP JUMPDEST SWAP3 SWAP2 POP POP JUMP JUMPDEST PUSH0 PUSH1 0x20 DUP3 DUP5 SUB SLT ISZERO PUSH2 0x261 JUMPI PUSH2 0x260 PUSH2 0x21E JUMP JUMPDEST JUMPDEST PUSH0 PUSH2 0x26E DUP5 DUP3 DUP6 ADD PUSH2 0x238 JUMP JUMPDEST SWAP2 POP POP SWAP3 SWAP2 POP POP JUMP INVALID LOG2 PUSH5 0x6970667358 0x22 SLT KECCAK256 0xD2 0xC4 MUL OR 0xD8 0xC9 PUSH19 0x18B25196508790AD1F4B717A4C109C2640A0EA SWAP11 0x2E DUP1 SWAP16 DUP1 DUP9 PUSH5 0x736F6C6343 STOP ADDMOD BYTE STOP CALLER "
				},
				"gasEstimates": {
					"creation": {
						"codeDepositCost": "137000",
						"executionCost": "24446",
						"totalCost": "161446"
					},
					"external": {
						"favoriteNumber()": "2402",
						"getFavoriteNumber()": "2476",
						"getWithTimeStamp()": "infinite",
						"owner()": "2530",
						"storeNumber(uint256)": "44693",
						"timestamp()": "2513"
					}
				},
				"methodIdentifiers": {
					"favoriteNumber()": "471f7cdf",
					"getFavoriteNumber()": "a621d15e",
					"getWithTimeStamp()": "69199d11",
					"owner()": "8da5cb5b",
					"storeNumber(uint256)": "b6339418",
					"timestamp()": "b80777ea"
				}
			},
			"storageLayout": {
				"storage": [
					{
						"astId": 62,
						"contract": "Advancd.sol:AdvancedStorage",
						"label": "favoriteNumber",
						"offset": 0,
						"slot": "0",
						"type": "t_uint256"
					},
					{
						"astId": 6,
						"contract": "Advancd.sol:AdvancedStorage",
						"label": "timestamp",
						"offset": 0,
						"slot": "1",
						"type": "t_uint256"
					},
					{
						"astId": 8,
						"contract": "Advancd.sol:AdvancedStorage",
						"label": "owner",
						"offset": 0,
						"slot": "2",
						"type": "t_address"
					}
				],
				"types": {
					"t_address": {
						"encoding": "inplace",
						"label": "address",
						"numberOfBytes": "20"
					},
					"t_uint256": {
						"encoding": "inplace",
						"label": "uint256",
						"numberOfBytes": "32"
					}
				}
			},
			"userdoc": {
				"kind": "user",
				"methods": {},
				"version": 1
			}
		}
	}
}